{
  "_format": "hh-sol-artifact-1",
  "contractName": "RocketNFT",
  "sourceName": "contracts/RocketNFT.sol",
  "abi": [
    {
      "anonymous": false,
      "inputs": [
        {
          "indexed": true,
          "internalType": "address",
          "name": "owner",
          "type": "address"
        },
        {
          "indexed": true,
          "internalType": "address",
          "name": "approved",
          "type": "address"
        },
        {
          "indexed": true,
          "internalType": "uint256",
          "name": "tokenId",
          "type": "uint256"
        }
      ],
      "name": "Approval",
      "type": "event"
    },
    {
      "anonymous": false,
      "inputs": [
        {
          "indexed": true,
          "internalType": "address",
          "name": "owner",
          "type": "address"
        },
        {
          "indexed": true,
          "internalType": "address",
          "name": "operator",
          "type": "address"
        },
        {
          "indexed": false,
          "internalType": "bool",
          "name": "approved",
          "type": "bool"
        }
      ],
      "name": "ApprovalForAll",
      "type": "event"
    },
    {
      "anonymous": false,
      "inputs": [
        {
          "indexed": true,
          "internalType": "bytes32",
          "name": "role",
          "type": "bytes32"
        },
        {
          "indexed": true,
          "internalType": "bytes32",
          "name": "previousAdminRole",
          "type": "bytes32"
        },
        {
          "indexed": true,
          "internalType": "bytes32",
          "name": "newAdminRole",
          "type": "bytes32"
        }
      ],
      "name": "RoleAdminChanged",
      "type": "event"
    },
    {
      "anonymous": false,
      "inputs": [
        {
          "indexed": true,
          "internalType": "bytes32",
          "name": "role",
          "type": "bytes32"
        },
        {
          "indexed": true,
          "internalType": "address",
          "name": "account",
          "type": "address"
        },
        {
          "indexed": true,
          "internalType": "address",
          "name": "sender",
          "type": "address"
        }
      ],
      "name": "RoleGranted",
      "type": "event"
    },
    {
      "anonymous": false,
      "inputs": [
        {
          "indexed": true,
          "internalType": "bytes32",
          "name": "role",
          "type": "bytes32"
        },
        {
          "indexed": true,
          "internalType": "address",
          "name": "account",
          "type": "address"
        },
        {
          "indexed": true,
          "internalType": "address",
          "name": "sender",
          "type": "address"
        }
      ],
      "name": "RoleRevoked",
      "type": "event"
    },
    {
      "anonymous": false,
      "inputs": [
        {
          "indexed": true,
          "internalType": "address",
          "name": "from",
          "type": "address"
        },
        {
          "indexed": true,
          "internalType": "address",
          "name": "to",
          "type": "address"
        },
        {
          "indexed": true,
          "internalType": "uint256",
          "name": "tokenId",
          "type": "uint256"
        }
      ],
      "name": "Transfer",
      "type": "event"
    },
    {
      "inputs": [],
      "name": "DEFAULT_ADMIN_ROLE",
      "outputs": [
        {
          "internalType": "bytes32",
          "name": "",
          "type": "bytes32"
        }
      ],
      "stateMutability": "view",
      "type": "function"
    },
    {
      "inputs": [],
      "name": "MINTER_ROLE",
      "outputs": [
        {
          "internalType": "bytes32",
          "name": "",
          "type": "bytes32"
        }
      ],
      "stateMutability": "view",
      "type": "function"
    },
    {
      "inputs": [
        {
          "internalType": "address",
          "name": "to",
          "type": "address"
        },
        {
          "internalType": "uint256",
          "name": "tokenId",
          "type": "uint256"
        }
      ],
      "name": "approve",
      "outputs": [],
      "stateMutability": "nonpayable",
      "type": "function"
    },
    {
      "inputs": [
        {
          "internalType": "address",
          "name": "owner",
          "type": "address"
        }
      ],
      "name": "balanceOf",
      "outputs": [
        {
          "internalType": "uint256",
          "name": "",
          "type": "uint256"
        }
      ],
      "stateMutability": "view",
      "type": "function"
    },
    {
      "inputs": [
        {
          "internalType": "uint256",
          "name": "tokenId",
          "type": "uint256"
        }
      ],
      "name": "burn",
      "outputs": [],
      "stateMutability": "nonpayable",
      "type": "function"
    },
    {
      "inputs": [
        {
          "internalType": "address",
          "name": "user",
          "type": "address"
        }
      ],
      "name": "getAllByUser",
      "outputs": [
        {
          "internalType": "uint256[]",
          "name": "",
          "type": "uint256[]"
        }
      ],
      "stateMutability": "view",
      "type": "function"
    },
    {
      "inputs": [
        {
          "internalType": "uint256",
          "name": "tokenId",
          "type": "uint256"
        }
      ],
      "name": "getApproved",
      "outputs": [
        {
          "internalType": "address",
          "name": "",
          "type": "address"
        }
      ],
      "stateMutability": "view",
      "type": "function"
    },
    {
      "inputs": [
        {
          "internalType": "uint256",
          "name": "tokenId",
          "type": "uint256"
        }
      ],
      "name": "getDetail",
      "outputs": [
        {
          "components": [
            {
              "internalType": "uint8",
              "name": "level",
              "type": "uint8"
            },
            {
              "internalType": "uint8",
              "name": "speed",
              "type": "uint8"
            }
          ],
          "internalType": "struct RocketNFT.RocketProperty",
          "name": "",
          "type": "tuple"
        }
      ],
      "stateMutability": "view",
      "type": "function"
    },
    {
      "inputs": [
        {
          "internalType": "bytes32",
          "name": "role",
          "type": "bytes32"
        }
      ],
      "name": "getRoleAdmin",
      "outputs": [
        {
          "internalType": "bytes32",
          "name": "",
          "type": "bytes32"
        }
      ],
      "stateMutability": "view",
      "type": "function"
    },
    {
      "inputs": [
        {
          "internalType": "bytes32",
          "name": "role",
          "type": "bytes32"
        },
        {
          "internalType": "address",
          "name": "account",
          "type": "address"
        }
      ],
      "name": "grantRole",
      "outputs": [],
      "stateMutability": "nonpayable",
      "type": "function"
    },
    {
      "inputs": [
        {
          "internalType": "bytes32",
          "name": "role",
          "type": "bytes32"
        },
        {
          "internalType": "address",
          "name": "account",
          "type": "address"
        }
      ],
      "name": "hasRole",
      "outputs": [
        {
          "internalType": "bool",
          "name": "",
          "type": "bool"
        }
      ],
      "stateMutability": "view",
      "type": "function"
    },
    {
      "inputs": [
        {
          "internalType": "string",
          "name": "name",
          "type": "string"
        },
        {
          "internalType": "string",
          "name": "ticker",
          "type": "string"
        }
      ],
      "name": "initialize",
      "outputs": [],
      "stateMutability": "nonpayable",
      "type": "function"
    },
    {
      "inputs": [
        {
          "internalType": "address",
          "name": "owner",
          "type": "address"
        },
        {
          "internalType": "address",
          "name": "operator",
          "type": "address"
        }
      ],
      "name": "isApprovedForAll",
      "outputs": [
        {
          "internalType": "bool",
          "name": "",
          "type": "bool"
        }
      ],
      "stateMutability": "view",
      "type": "function"
    },
    {
      "inputs": [],
      "name": "name",
      "outputs": [
        {
          "internalType": "string",
          "name": "",
          "type": "string"
        }
      ],
      "stateMutability": "view",
      "type": "function"
    },
    {
      "inputs": [
        {
          "internalType": "uint256",
          "name": "tokenId",
          "type": "uint256"
        }
      ],
      "name": "ownerOf",
      "outputs": [
        {
          "internalType": "address",
          "name": "",
          "type": "address"
        }
      ],
      "stateMutability": "view",
      "type": "function"
    },
    {
      "inputs": [
        {
          "internalType": "bytes32",
          "name": "role",
          "type": "bytes32"
        },
        {
          "internalType": "address",
          "name": "account",
          "type": "address"
        }
      ],
      "name": "renounceRole",
      "outputs": [],
      "stateMutability": "nonpayable",
      "type": "function"
    },
    {
      "inputs": [
        {
          "internalType": "bytes32",
          "name": "role",
          "type": "bytes32"
        },
        {
          "internalType": "address",
          "name": "account",
          "type": "address"
        }
      ],
      "name": "revokeRole",
      "outputs": [],
      "stateMutability": "nonpayable",
      "type": "function"
    },
    {
      "inputs": [
        {
          "internalType": "address",
          "name": "to",
          "type": "address"
        }
      ],
      "name": "safeMint",
      "outputs": [
        {
          "internalType": "uint256",
          "name": "",
          "type": "uint256"
        }
      ],
      "stateMutability": "nonpayable",
      "type": "function"
    },
    {
      "inputs": [
        {
          "internalType": "address",
          "name": "from",
          "type": "address"
        },
        {
          "internalType": "address",
          "name": "to",
          "type": "address"
        },
        {
          "internalType": "uint256",
          "name": "tokenId",
          "type": "uint256"
        }
      ],
      "name": "safeTransferFrom",
      "outputs": [],
      "stateMutability": "nonpayable",
      "type": "function"
    },
    {
      "inputs": [
        {
          "internalType": "address",
          "name": "from",
          "type": "address"
        },
        {
          "internalType": "address",
          "name": "to",
          "type": "address"
        },
        {
          "internalType": "uint256",
          "name": "tokenId",
          "type": "uint256"
        },
        {
          "internalType": "bytes",
          "name": "_data",
          "type": "bytes"
        }
      ],
      "name": "safeTransferFrom",
      "outputs": [],
      "stateMutability": "nonpayable",
      "type": "function"
    },
    {
      "inputs": [
        {
          "internalType": "address",
          "name": "operator",
          "type": "address"
        },
        {
          "internalType": "bool",
          "name": "approved",
          "type": "bool"
        }
      ],
      "name": "setApprovalForAll",
      "outputs": [],
      "stateMutability": "nonpayable",
      "type": "function"
    },
    {
      "inputs": [
        {
          "internalType": "bytes4",
          "name": "interfaceId",
          "type": "bytes4"
        }
      ],
      "name": "supportsInterface",
      "outputs": [
        {
          "internalType": "bool",
          "name": "",
          "type": "bool"
        }
      ],
      "stateMutability": "view",
      "type": "function"
    },
    {
      "inputs": [],
      "name": "symbol",
      "outputs": [
        {
          "internalType": "string",
          "name": "",
          "type": "string"
        }
      ],
      "stateMutability": "view",
      "type": "function"
    },
    {
      "inputs": [
        {
          "internalType": "uint256",
          "name": "tokenId",
          "type": "uint256"
        }
      ],
      "name": "tokenURI",
      "outputs": [
        {
          "internalType": "string",
          "name": "",
          "type": "string"
        }
      ],
      "stateMutability": "view",
      "type": "function"
    },
    {
      "inputs": [
        {
          "internalType": "address",
          "name": "from",
          "type": "address"
        },
        {
          "internalType": "address",
          "name": "to",
          "type": "address"
        },
        {
          "internalType": "uint256",
          "name": "tokenId",
          "type": "uint256"
        }
      ],
      "name": "transferFrom",
      "outputs": [],
      "stateMutability": "nonpayable",
      "type": "function"
    }
  ],
  "bytecode": "0x608060405234801561001057600080fd5b5061222c806100206000396000f3fe608060405234801561001057600080fd5b50600436106101735760003560e01c80635996c9c6116100de578063a217fddf11610097578063c87b56dd11610071578063c87b56dd146103ae578063d5391393146103c1578063d547741f146103e8578063e985e9c5146103fb57600080fd5b8063a217fddf14610380578063a22cb46514610388578063b88d4fde1461039b57600080fd5b80635996c9c6146102ab5780636352211e146102cb57806370a08231146102de57806391d14854146102f157806395d89b41146103045780639d66a9cd1461030c57600080fd5b80632f2ff15d116101305780632f2ff15d1461023957806336568abe1461024c57806340d097c31461025f57806342842e0e1461027257806342966c68146102855780634cd88b761461029857600080fd5b806301ffc9a71461017857806306fdde03146101a0578063081812fc146101b5578063095ea7b3146101e057806323b872dd146101f5578063248a9ca314610208575b600080fd5b61018b610186366004611d85565b610437565b60405190151581526020015b60405180910390f35b6101a8610448565b6040516101979190611f6f565b6101c86101c3366004611d4b565b6104da565b6040516001600160a01b039091168152602001610197565b6101f36101ee366004611d22565b610574565b005b6101f3610203366004611c34565b61068a565b61022b610216366004611d4b565b600090815260c9602052604090206001015490565b604051908152602001610197565b6101f3610247366004611d63565b6106bc565b6101f361025a366004611d63565b6106e2565b61022b61026d366004611be8565b610760565b6101f3610280366004611c34565b610814565b6101f3610293366004611d4b565b61082f565b6101f36102a6366004611dbd565b6108a9565b6102be6102b9366004611be8565b6109b2565b6040516101979190611f2b565b6101c86102d9366004611d4b565b610ab7565b61022b6102ec366004611be8565b610b2e565b61018b6102ff366004611d63565b610bb5565b6101a8610be0565b61035f61031a366004611d4b565b604080518082019091526000808252602082015250600090815260fd602090815260409182902082518084019093525460ff8082168452610100909104169082015290565b60408051825160ff9081168252602093840151169281019290925201610197565b61022b600081565b6101f3610396366004611ce8565b610bef565b6101f36103a9366004611c6f565b610bfa565b6101a86103bc366004611d4b565b610c32565b61022b7f9f2df0fed2c77648de5860a4cc508cd0818c85b8b8a1ab4ceeef8d981c8956a681565b6101f36103f6366004611d63565b610d1a565b61018b610409366004611c02565b6001600160a01b039182166000908152606a6020908152604080832093909416825291909152205460ff1690565b600061044282610d40565b92915050565b6060606580546104579061213a565b80601f01602080910402602001604051908101604052809291908181526020018280546104839061213a565b80156104d05780601f106104a5576101008083540402835291602001916104d0565b820191906000526020600020905b8154815290600101906020018083116104b357829003601f168201915b5050505050905090565b6000818152606760205260408120546001600160a01b03166105585760405162461bcd60e51b815260206004820152602c60248201527f4552433732313a20617070726f76656420717565727920666f72206e6f6e657860448201526b34b9ba32b73a103a37b5b2b760a11b60648201526084015b60405180910390fd5b506000908152606960205260409020546001600160a01b031690565b600061057f82610ab7565b9050806001600160a01b0316836001600160a01b031614156105ed5760405162461bcd60e51b815260206004820152602160248201527f4552433732313a20617070726f76616c20746f2063757272656e74206f776e656044820152603960f91b606482015260840161054f565b336001600160a01b038216148061060957506106098133610409565b61067b5760405162461bcd60e51b815260206004820152603860248201527f4552433732313a20617070726f76652063616c6c6572206973206e6f74206f7760448201527f6e6572206e6f7220617070726f76656420666f7220616c6c0000000000000000606482015260840161054f565b6106858383610d65565b505050565b610695335b82610dd3565b6106b15760405162461bcd60e51b815260040161054f90611fd4565b610685838383610eca565b600082815260c960205260409020600101546106d8813361106a565b61068583836110ce565b6001600160a01b03811633146107525760405162461bcd60e51b815260206004820152602f60248201527f416363657373436f6e74726f6c3a2063616e206f6e6c792072656e6f756e636560448201526e103937b632b9903337b91039b2b63360891b606482015260840161054f565b61075c8282611154565b5050565b60007f9f2df0fed2c77648de5860a4cc508cd0818c85b8b8a1ab4ceeef8d981c8956a661078d813361106a565b600061079860fb5490565b90506040518060400160405280600160ff1681526020016107b960636111bb565b60ff908116909152600083815260fd6020908152604090912083518154949092015183166101000261ffff19909416919092161791909117905561080160fb80546001019055565b61080b8482611222565b91505b50919050565b61068583838360405180602001604052806000815250610bfa565b6108383361068f565b61089d5760405162461bcd60e51b815260206004820152603060248201527f4552433732314275726e61626c653a2063616c6c6572206973206e6f74206f7760448201526f1b995c881b9bdc88185c1c1c9bdd995960821b606482015260840161054f565b6108a68161123c565b50565b600054610100900460ff166108c45760005460ff16156108c8565b303b155b61092b5760405162461bcd60e51b815260206004820152602e60248201527f496e697469616c697a61626c653a20636f6e747261637420697320616c72656160448201526d191e481a5b9a5d1a585b1a5e995960921b606482015260840161054f565b600054610100900460ff1615801561094d576000805461ffff19166101011790555b61095783836112d7565b61095f611318565b610967611318565b6109726000336110ce565b61099c7f9f2df0fed2c77648de5860a4cc508cd0818c85b8b8a1ab4ceeef8d981c8956a6336110ce565b8015610685576000805461ff0019169055505050565b606060006109bf83610b2e565b9050806109dc575050604080516000815260208101909152919050565b60008167ffffffffffffffff811115610a0557634e487b7160e01b600052604160045260246000fd5b604051908082528060200260200182016040528015610a2e578160200160208202803683370190505b5090506000805b60fb54811015610aad57856001600160a01b0316610a5282610ab7565b6001600160a01b03161415610a9b5780838381518110610a8257634e487b7160e01b600052603260045260246000fd5b602090810291909101015281610a978161216f565b9250505b80610aa58161216f565b915050610a35565b5090949350505050565b6000818152606760205260408120546001600160a01b0316806104425760405162461bcd60e51b815260206004820152602960248201527f4552433732313a206f776e657220717565727920666f72206e6f6e657869737460448201526832b73a103a37b5b2b760b91b606482015260840161054f565b60006001600160a01b038216610b995760405162461bcd60e51b815260206004820152602a60248201527f4552433732313a2062616c616e636520717565727920666f7220746865207a65604482015269726f206164647265737360b01b606482015260840161054f565b506001600160a01b031660009081526068602052604090205490565b600091825260c9602090815260408084206001600160a01b0393909316845291905290205460ff1690565b6060606680546104579061213a565b61075c338383611359565b610c043383610dd3565b610c205760405162461bcd60e51b815260040161054f90611fd4565b610c2c84848484611428565b50505050565b6000818152606760205260409020546060906001600160a01b0316610cb15760405162461bcd60e51b815260206004820152602f60248201527f4552433732314d657461646174613a2055524920717565727920666f72206e6f60448201526e3732bc34b9ba32b73a103a37b5b2b760891b606482015260840161054f565b6000610cc860408051602081019091526000815290565b90506000815111610ce85760405180602001604052806000815250610d13565b80610cf28461145b565b604051602001610d03929190611e4a565b6040516020818303038152906040525b9392505050565b600082815260c96020526040902060010154610d36813361106a565b6106858383611154565b60006001600160e01b03198216637965db0b60e01b1480610442575061044282611575565b600081815260696020526040902080546001600160a01b0319166001600160a01b0384169081179091558190610d9a82610ab7565b6001600160a01b03167f8c5be1e5ebec7d5bd14f71427d1e84f3dd0314c0f7b2291e5b200ac8c7c3b92560405160405180910390a45050565b6000818152606760205260408120546001600160a01b0316610e4c5760405162461bcd60e51b815260206004820152602c60248201527f4552433732313a206f70657261746f7220717565727920666f72206e6f6e657860448201526b34b9ba32b73a103a37b5b2b760a11b606482015260840161054f565b6000610e5783610ab7565b9050806001600160a01b0316846001600160a01b03161480610e925750836001600160a01b0316610e87846104da565b6001600160a01b0316145b80610ec257506001600160a01b038082166000908152606a602090815260408083209388168352929052205460ff165b949350505050565b826001600160a01b0316610edd82610ab7565b6001600160a01b031614610f455760405162461bcd60e51b815260206004820152602960248201527f4552433732313a207472616e73666572206f6620746f6b656e2074686174206960448201526839903737ba1037bbb760b91b606482015260840161054f565b6001600160a01b038216610fa75760405162461bcd60e51b8152602060048201526024808201527f4552433732313a207472616e7366657220746f20746865207a65726f206164646044820152637265737360e01b606482015260840161054f565b610fb2600082610d65565b6001600160a01b0383166000908152606860205260408120805460019290610fdb9084906120e0565b90915550506001600160a01b0382166000908152606860205260408120805460019290611009908490612070565b909155505060008181526067602052604080822080546001600160a01b0319166001600160a01b0386811691821790925591518493918716917fddf252ad1be2c89b69c2b068fc378daa952ba7f163c4a11628f55a4df523b3ef91a4505050565b6110748282610bb5565b61075c5761108c816001600160a01b031660146115c5565b6110978360206115c5565b6040516020016110a8929190611e79565b60408051601f198184030181529082905262461bcd60e51b825261054f91600401611f6f565b6110d88282610bb5565b61075c57600082815260c9602090815260408083206001600160a01b03851684529091529020805460ff191660011790556111103390565b6001600160a01b0316816001600160a01b0316837f2f8788117e7eff1d82e926ec794901d17c78024a50270940304540a733656f0d60405160405180910390a45050565b61115e8282610bb5565b1561075c57600082815260c9602090815260408083206001600160a01b0385168085529252808320805460ff1916905551339285917ff6391f5c32d9c69d2a47ea670b442974b53935d1edc7fd64eb21e047a839171b9190a45050565b60008160ff16424460fc60008154809291906111d69061216f565b9091555060408051602081019490945283019190915260608201526080016040516020818303038152906040528051906020012060001c611217919061218a565b610442906001612088565b61075c8282604051806020016040528060008152506117a7565b600061124782610ab7565b9050611254600083610d65565b6001600160a01b038116600090815260686020526040812080546001929061127d9084906120e0565b909155505060008281526067602052604080822080546001600160a01b0319169055518391906001600160a01b038416907fddf252ad1be2c89b69c2b068fc378daa952ba7f163c4a11628f55a4df523b3ef908390a45050565b600054610100900460ff166112fe5760405162461bcd60e51b815260040161054f90612025565b6113066117da565b61130e6117da565b61075c8282611801565b600054610100900460ff1661133f5760405162461bcd60e51b815260040161054f90612025565b6113476117da565b61134f6117da565b6113576117da565b565b816001600160a01b0316836001600160a01b031614156113bb5760405162461bcd60e51b815260206004820152601960248201527f4552433732313a20617070726f766520746f2063616c6c657200000000000000604482015260640161054f565b6001600160a01b038381166000818152606a6020908152604080832094871680845294825291829020805460ff191686151590811790915591519182527f17307eab39ab6107e8899845ad3d59bd9653f200f220920489ca2b5937696c31910160405180910390a3505050565b611433848484610eca565b61143f8484848461184f565b610c2c5760405162461bcd60e51b815260040161054f90611f82565b60608161147f5750506040805180820190915260018152600360fc1b602082015290565b8160005b81156114a957806114938161216f565b91506114a29050600a836120ad565b9150611483565b60008167ffffffffffffffff8111156114d257634e487b7160e01b600052604160045260246000fd5b6040519080825280601f01601f1916602001820160405280156114fc576020820181803683370190505b5090505b8415610ec2576115116001836120e0565b915061151e600a8661218a565b611529906030612070565b60f81b81838151811061154c57634e487b7160e01b600052603260045260246000fd5b60200101906001600160f81b031916908160001a90535061156e600a866120ad565b9450611500565b60006001600160e01b031982166380ac58cd60e01b14806115a657506001600160e01b03198216635b5e139f60e01b145b8061044257506301ffc9a760e01b6001600160e01b0319831614610442565b606060006115d48360026120c1565b6115df906002612070565b67ffffffffffffffff81111561160557634e487b7160e01b600052604160045260246000fd5b6040519080825280601f01601f19166020018201604052801561162f576020820181803683370190505b509050600360fc1b8160008151811061165857634e487b7160e01b600052603260045260246000fd5b60200101906001600160f81b031916908160001a905350600f60fb1b8160018151811061169557634e487b7160e01b600052603260045260246000fd5b60200101906001600160f81b031916908160001a90535060006116b98460026120c1565b6116c4906001612070565b90505b6001811115611758576f181899199a1a9b1b9c1cb0b131b232b360811b85600f166010811061170657634e487b7160e01b600052603260045260246000fd5b1a60f81b82828151811061172a57634e487b7160e01b600052603260045260246000fd5b60200101906001600160f81b031916908160001a90535060049490941c9361175181612123565b90506116c7565b508315610d135760405162461bcd60e51b815260206004820181905260248201527f537472696e67733a20686578206c656e67746820696e73756666696369656e74604482015260640161054f565b6117b1838361195c565b6117be600084848461184f565b6106855760405162461bcd60e51b815260040161054f90611f82565b600054610100900460ff166113575760405162461bcd60e51b815260040161054f90612025565b600054610100900460ff166118285760405162461bcd60e51b815260040161054f90612025565b815161183b906065906020850190611a9e565b508051610685906066906020840190611a9e565b60006001600160a01b0384163b1561195157604051630a85bd0160e11b81526001600160a01b0385169063150b7a0290611893903390899088908890600401611eee565b602060405180830381600087803b1580156118ad57600080fd5b505af19250505080156118dd575060408051601f3d908101601f191682019092526118da91810190611da1565b60015b611937573d80801561190b576040519150601f19603f3d011682016040523d82523d6000602084013e611910565b606091505b50805161192f5760405162461bcd60e51b815260040161054f90611f82565b805181602001fd5b6001600160e01b031916630a85bd0160e11b149050610ec2565b506001949350505050565b6001600160a01b0382166119b25760405162461bcd60e51b815260206004820181905260248201527f4552433732313a206d696e7420746f20746865207a65726f2061646472657373604482015260640161054f565b6000818152606760205260409020546001600160a01b031615611a175760405162461bcd60e51b815260206004820152601c60248201527f4552433732313a20746f6b656e20616c7265616479206d696e74656400000000604482015260640161054f565b6001600160a01b0382166000908152606860205260408120805460019290611a40908490612070565b909155505060008181526067602052604080822080546001600160a01b0319166001600160a01b03861690811790915590518392907fddf252ad1be2c89b69c2b068fc378daa952ba7f163c4a11628f55a4df523b3ef908290a45050565b828054611aaa9061213a565b90600052602060002090601f016020900481019282611acc5760008555611b12565b82601f10611ae557805160ff1916838001178555611b12565b82800160010185558215611b12579182015b82811115611b12578251825591602001919060010190611af7565b50611b1e929150611b22565b5090565b5b80821115611b1e5760008155600101611b23565b600067ffffffffffffffff80841115611b5257611b526121ca565b604051601f8501601f19908116603f01168101908282118183101715611b7a57611b7a6121ca565b81604052809350858152868686011115611b9357600080fd5b858560208301376000602087830101525050509392505050565b80356001600160a01b0381168114611bc457600080fd5b919050565b600082601f830112611bd9578081fd5b610d1383833560208501611b37565b600060208284031215611bf9578081fd5b610d1382611bad565b60008060408385031215611c14578081fd5b611c1d83611bad565b9150611c2b60208401611bad565b90509250929050565b600080600060608486031215611c48578081fd5b611c5184611bad565b9250611c5f60208501611bad565b9150604084013590509250925092565b60008060008060808587031215611c84578081fd5b611c8d85611bad565b9350611c9b60208601611bad565b925060408501359150606085013567ffffffffffffffff811115611cbd578182fd5b8501601f81018713611ccd578182fd5b611cdc87823560208401611b37565b91505092959194509250565b60008060408385031215611cfa578182fd5b611d0383611bad565b915060208301358015158114611d17578182fd5b809150509250929050565b60008060408385031215611d34578182fd5b611d3d83611bad565b946020939093013593505050565b600060208284031215611d5c578081fd5b5035919050565b60008060408385031215611d75578182fd5b82359150611c2b60208401611bad565b600060208284031215611d96578081fd5b8135610d13816121e0565b600060208284031215611db2578081fd5b8151610d13816121e0565b60008060408385031215611dcf578182fd5b823567ffffffffffffffff80821115611de6578384fd5b611df286838701611bc9565b93506020850135915080821115611e07578283fd5b50611e1485828601611bc9565b9150509250929050565b60008151808452611e368160208601602086016120f7565b601f01601f19169290920160200192915050565b60008351611e5c8184602088016120f7565b835190830190611e708183602088016120f7565b01949350505050565b7f416363657373436f6e74726f6c3a206163636f756e7420000000000000000000815260008351611eb18160178501602088016120f7565b7001034b99036b4b9b9b4b733903937b6329607d1b6017918401918201528351611ee28160288401602088016120f7565b01602801949350505050565b6001600160a01b0385811682528416602082015260408101839052608060608201819052600090611f2190830184611e1e565b9695505050505050565b6020808252825182820181905260009190848201906040850190845b81811015611f6357835183529284019291840191600101611f47565b50909695505050505050565b602081526000610d136020830184611e1e565b60208082526032908201527f4552433732313a207472616e7366657220746f206e6f6e20455243373231526560408201527131b2b4bb32b91034b6b83632b6b2b73a32b960711b606082015260800190565b60208082526031908201527f4552433732313a207472616e736665722063616c6c6572206973206e6f74206f6040820152701ddb995c881b9bdc88185c1c1c9bdd9959607a1b606082015260800190565b6020808252602b908201527f496e697469616c697a61626c653a20636f6e7472616374206973206e6f74206960408201526a6e697469616c697a696e6760a81b606082015260800190565b600082198211156120835761208361219e565b500190565b600060ff821660ff84168060ff038211156120a5576120a561219e565b019392505050565b6000826120bc576120bc6121b4565b500490565b60008160001904831182151516156120db576120db61219e565b500290565b6000828210156120f2576120f261219e565b500390565b60005b838110156121125781810151838201526020016120fa565b83811115610c2c5750506000910152565b6000816121325761213261219e565b506000190190565b600181811c9082168061214e57607f821691505b6020821081141561080e57634e487b7160e01b600052602260045260246000fd5b60006000198214156121835761218361219e565b5060010190565b600082612199576121996121b4565b500690565b634e487b7160e01b600052601160045260246000fd5b634e487b7160e01b600052601260045260246000fd5b634e487b7160e01b600052604160045260246000fd5b6001600160e01b0319811681146108a657600080fdfea2646970667358221220f9410e9a79bf2eada76e8e50bb0e123d1fa31734f877fba40863103c6195314164736f6c63430008040033",
  "linkReferences": {},
  "deployedLinkReferences": {}
}