{
  "_format": "hh-sol-artifact-1",
  "contractName": "RocketSummoner",
  "sourceName": "contracts/RocketSummoner.sol",
  "abi": [
    {
      "anonymous": false,
      "inputs": [
        {
          "indexed": true,
          "internalType": "address",
          "name": "owner",
          "type": "address"
        },
        {
          "indexed": false,
          "internalType": "contract RocketNFT",
          "name": "nft",
          "type": "address"
        },
        {
          "indexed": false,
          "internalType": "uint256",
          "name": "tokenId",
          "type": "uint256"
        }
      ],
      "name": "NewRocket",
      "type": "event"
    },
    {
      "anonymous": false,
      "inputs": [
        {
          "indexed": true,
          "internalType": "address",
          "name": "previousOwner",
          "type": "address"
        },
        {
          "indexed": true,
          "internalType": "address",
          "name": "newOwner",
          "type": "address"
        }
      ],
      "name": "OwnershipTransferred",
      "type": "event"
    },
    {
      "inputs": [],
      "name": "getRockets",
      "outputs": [
        {
          "internalType": "contract RocketNFT[]",
          "name": "",
          "type": "address[]"
        }
      ],
      "stateMutability": "view",
      "type": "function"
    },
    {
      "inputs": [],
      "name": "getSummonPrice",
      "outputs": [
        {
          "internalType": "uint256",
          "name": "",
          "type": "uint256"
        }
      ],
      "stateMutability": "view",
      "type": "function"
    },
    {
      "inputs": [],
      "name": "getToken",
      "outputs": [
        {
          "internalType": "contract IERC20",
          "name": "",
          "type": "address"
        }
      ],
      "stateMutability": "view",
      "type": "function"
    },
    {
      "inputs": [],
      "name": "initialize",
      "outputs": [],
      "stateMutability": "nonpayable",
      "type": "function"
    },
    {
      "inputs": [],
      "name": "owner",
      "outputs": [
        {
          "internalType": "address",
          "name": "",
          "type": "address"
        }
      ],
      "stateMutability": "view",
      "type": "function"
    },
    {
      "inputs": [],
      "name": "renounceOwnership",
      "outputs": [],
      "stateMutability": "nonpayable",
      "type": "function"
    },
    {
      "inputs": [
        {
          "internalType": "contract RocketNFT[]",
          "name": "rockets",
          "type": "address[]"
        }
      ],
      "name": "setRockets",
      "outputs": [],
      "stateMutability": "nonpayable",
      "type": "function"
    },
    {
      "inputs": [
        {
          "internalType": "uint256",
          "name": "summonPrice",
          "type": "uint256"
        }
      ],
      "name": "setSummonPrice",
      "outputs": [],
      "stateMutability": "nonpayable",
      "type": "function"
    },
    {
      "inputs": [
        {
          "internalType": "contract IERC20",
          "name": "token",
          "type": "address"
        }
      ],
      "name": "setToken",
      "outputs": [],
      "stateMutability": "nonpayable",
      "type": "function"
    },
    {
      "inputs": [],
      "name": "summon",
      "outputs": [],
      "stateMutability": "nonpayable",
      "type": "function"
    },
    {
      "inputs": [
        {
          "internalType": "address",
          "name": "newOwner",
          "type": "address"
        }
      ],
      "name": "transferOwnership",
      "outputs": [],
      "stateMutability": "nonpayable",
      "type": "function"
    }
  ],
  "bytecode": "0x608060405234801561001057600080fd5b50610aa2806100206000396000f3fe608060405234801561001057600080fd5b50600436106100a95760003560e01c8063715018a611610071578063715018a6146101195780638129fc1c1461012157806384505746146101295780638da5cb5b1461013c578063edd3c6c01461014d578063f2fde38b1461016257600080fd5b80630c0e047e146100ae578063144fa6d7146100c457806321df0da7146100d9578063363dd19e146100fe5780633680abf614610106575b600080fd5b6066546040519081526020015b60405180910390f35b6100d76100d23660046107f3565b610175565b005b6065546001600160a01b03165b6040516001600160a01b0390911681526020016100bb565b6100d76101ca565b6100d7610114366004610816565b6103c6565b6100d7610407565b6100d761043d565b6100d76101373660046108fd565b6104fe565b6033546001600160a01b03166100e6565b61015561052d565b6040516100bb919061092d565b6100d76101703660046107f3565b61058f565b6033546001600160a01b031633146101a85760405162461bcd60e51b815260040161019f9061097a565b60405180910390fd5b606580546001600160a01b0319166001600160a01b0392909216919091179055565b60675461022e5760405162461bcd60e51b815260206004820152602c60248201527f526f636b65747320746f206d696e74206d75737420626520736574746564206260448201526b32b337b9329039bab6b6b7b760a11b606482015260840161019f565b60675460009061023d90610627565b9050600060678260ff168154811061026557634e487b7160e01b600052603260045260246000fd5b60009182526020822001546040516340d097c360e01b81523360048201526001600160a01b03909116925082906340d097c390602401602060405180830381600087803b1580156102b557600080fd5b505af11580156102c9573d6000803e3d6000fd5b505050506040513d601f19601f820116820180604052508101906102ed9190610915565b6065546066546040516323b872dd60e01b815233600482015230602482015260448101919091529192506001600160a01b0316906323b872dd90606401602060405180830381600087803b15801561034457600080fd5b505af1158015610358573d6000803e3d6000fd5b505050506040513d601f19601f8201168201806040525081019061037c91906108dd565b50604080516001600160a01b03841681526020810183905233917ffcc1a549bf46446fad86b1071eba1423d445566197087ab0b917ec5625fedd85910160405180910390a2505050565b6033546001600160a01b031633146103f05760405162461bcd60e51b815260040161019f9061097a565b8051610403906067906020840190610769565b5050565b6033546001600160a01b031633146104315760405162461bcd60e51b815260040161019f9061097a565b61043b6000610689565b565b600054610100900460ff166104585760005460ff161561045c565b303b155b6104bf5760405162461bcd60e51b815260206004820152602e60248201527f496e697469616c697a61626c653a20636f6e747261637420697320616c72656160448201526d191e481a5b9a5d1a585b1a5e995960921b606482015260840161019f565b600054610100900460ff161580156104e1576000805461ffff19166101011790555b6104e96106db565b80156104fb576000805461ff00191690555b50565b6033546001600160a01b031633146105285760405162461bcd60e51b815260040161019f9061097a565b606655565b6060606780548060200260200160405190810160405280929190818152602001828054801561058557602002820191906000526020600020905b81546001600160a01b03168152600190910190602001808311610567575b5050505050905090565b6033546001600160a01b031633146105b95760405162461bcd60e51b815260040161019f9061097a565b6001600160a01b03811661061e5760405162461bcd60e51b815260206004820152602660248201527f4f776e61626c653a206e6577206f776e657220697320746865207a65726f206160448201526564647265737360d01b606482015260840161019f565b6104fb81610689565b60008160ff16424460686000815480929190610642906109fa565b9091555060408051602081019490945283019190915260608201526080016040516020818303038152906040528051906020012060001c6106839190610a21565b92915050565b603380546001600160a01b038381166001600160a01b0319831681179093556040519116919082907f8be0079c531659141344cd1fd0a4f28419497f9722a3daafe3b4186f6b6457e090600090a35050565b600054610100900460ff166107025760405162461bcd60e51b815260040161019f906109af565b61070a610712565b61043b610739565b600054610100900460ff1661043b5760405162461bcd60e51b815260040161019f906109af565b600054610100900460ff166107605760405162461bcd60e51b815260040161019f906109af565b61043b33610689565b8280548282559060005260206000209081019282156107be579160200282015b828111156107be57825182546001600160a01b0319166001600160a01b03909116178255602090920191600190910190610789565b506107ca9291506107ce565b5090565b5b808211156107ca57600081556001016107cf565b80356107ee81610a57565b919050565b600060208284031215610804578081fd5b813561080f81610a57565b9392505050565b60006020808385031215610828578182fd5b823567ffffffffffffffff8082111561083f578384fd5b818501915085601f830112610852578384fd5b81358181111561086457610864610a41565b8060051b604051601f19603f8301168101818110858211171561088957610889610a41565b604052828152858101935084860182860187018a10156108a7578788fd5b8795505b838610156108d0576108bc816107e3565b8552600195909501949386019386016108ab565b5098975050505050505050565b6000602082840312156108ee578081fd5b8151801515811461080f578182fd5b60006020828403121561090e578081fd5b5035919050565b600060208284031215610926578081fd5b5051919050565b6020808252825182820181905260009190848201906040850190845b8181101561096e5783516001600160a01b031683529284019291840191600101610949565b50909695505050505050565b6020808252818101527f4f776e61626c653a2063616c6c6572206973206e6f7420746865206f776e6572604082015260600190565b6020808252602b908201527f496e697469616c697a61626c653a20636f6e7472616374206973206e6f74206960408201526a6e697469616c697a696e6760a81b606082015260800190565b6000600019821415610a1a57634e487b7160e01b81526011600452602481fd5b5060010190565b600082610a3c57634e487b7160e01b81526012600452602481fd5b500690565b634e487b7160e01b600052604160045260246000fd5b6001600160a01b03811681146104fb57600080fdfea26469706673582212200d8e328ff27a446e5422792016f82222248f9e91895061a92d2b2eb5b45b6a3664736f6c63430008040033",
  "linkReferences": {},
  "deployedLinkReferences": {}
}