{
  "_format": "hh-sol-artifact-1",
  "contractName": "Marketplace",
  "sourceName": "contracts/Marketplace.sol",
  "abi": [
    {
      "anonymous": false,
      "inputs": [
        {
          "indexed": true,
          "internalType": "uint256",
          "name": "itemId",
          "type": "uint256"
        },
        {
          "indexed": true,
          "internalType": "address",
          "name": "nftContract",
          "type": "address"
        },
        {
          "indexed": true,
          "internalType": "uint256",
          "name": "tokenId",
          "type": "uint256"
        },
        {
          "indexed": false,
          "internalType": "address",
          "name": "seller",
          "type": "address"
        },
        {
          "indexed": false,
          "internalType": "address",
          "name": "soldTo",
          "type": "address"
        },
        {
          "indexed": false,
          "internalType": "uint256",
          "name": "price",
          "type": "uint256"
        },
        {
          "indexed": false,
          "internalType": "bool",
          "name": "sold",
          "type": "bool"
        }
      ],
      "name": "MarketItemCreated",
      "type": "event"
    },
    {
      "anonymous": false,
      "inputs": [
        {
          "indexed": true,
          "internalType": "address",
          "name": "previousOwner",
          "type": "address"
        },
        {
          "indexed": true,
          "internalType": "address",
          "name": "newOwner",
          "type": "address"
        }
      ],
      "name": "OwnershipTransferred",
      "type": "event"
    },
    {
      "inputs": [
        {
          "internalType": "address",
          "name": "nftContract",
          "type": "address"
        },
        {
          "internalType": "uint256",
          "name": "tokenId",
          "type": "uint256"
        },
        {
          "internalType": "uint256",
          "name": "price",
          "type": "uint256"
        }
      ],
      "name": "createMarketItem",
      "outputs": [],
      "stateMutability": "nonpayable",
      "type": "function"
    },
    {
      "inputs": [
        {
          "internalType": "address",
          "name": "nftContract",
          "type": "address"
        },
        {
          "internalType": "uint256",
          "name": "itemId",
          "type": "uint256"
        }
      ],
      "name": "createMarketSale",
      "outputs": [],
      "stateMutability": "nonpayable",
      "type": "function"
    },
    {
      "inputs": [],
      "name": "fetchMarketItems",
      "outputs": [
        {
          "components": [
            {
              "internalType": "uint256",
              "name": "itemId",
              "type": "uint256"
            },
            {
              "internalType": "address",
              "name": "nftContract",
              "type": "address"
            },
            {
              "internalType": "uint256",
              "name": "tokenId",
              "type": "uint256"
            },
            {
              "internalType": "address payable",
              "name": "seller",
              "type": "address"
            },
            {
              "internalType": "address payable",
              "name": "soldTo",
              "type": "address"
            },
            {
              "internalType": "uint256",
              "name": "price",
              "type": "uint256"
            },
            {
              "internalType": "bool",
              "name": "sold",
              "type": "bool"
            }
          ],
          "internalType": "struct Marketplace.MarketItem[]",
          "name": "",
          "type": "tuple[]"
        }
      ],
      "stateMutability": "view",
      "type": "function"
    },
    {
      "inputs": [
        {
          "internalType": "uint256",
          "name": "tokenId",
          "type": "uint256"
        }
      ],
      "name": "getDetail",
      "outputs": [
        {
          "components": [
            {
              "internalType": "uint256",
              "name": "itemId",
              "type": "uint256"
            },
            {
              "internalType": "address",
              "name": "nftContract",
              "type": "address"
            },
            {
              "internalType": "uint256",
              "name": "tokenId",
              "type": "uint256"
            },
            {
              "internalType": "address payable",
              "name": "seller",
              "type": "address"
            },
            {
              "internalType": "address payable",
              "name": "soldTo",
              "type": "address"
            },
            {
              "internalType": "uint256",
              "name": "price",
              "type": "uint256"
            },
            {
              "internalType": "bool",
              "name": "sold",
              "type": "bool"
            }
          ],
          "internalType": "struct Marketplace.MarketItem",
          "name": "",
          "type": "tuple"
        }
      ],
      "stateMutability": "view",
      "type": "function"
    },
    {
      "inputs": [],
      "name": "getToken",
      "outputs": [
        {
          "internalType": "contract IERC20",
          "name": "",
          "type": "address"
        }
      ],
      "stateMutability": "view",
      "type": "function"
    },
    {
      "inputs": [],
      "name": "initialize",
      "outputs": [],
      "stateMutability": "nonpayable",
      "type": "function"
    },
    {
      "inputs": [],
      "name": "owner",
      "outputs": [
        {
          "internalType": "address",
          "name": "",
          "type": "address"
        }
      ],
      "stateMutability": "view",
      "type": "function"
    },
    {
      "inputs": [],
      "name": "renounceOwnership",
      "outputs": [],
      "stateMutability": "nonpayable",
      "type": "function"
    },
    {
      "inputs": [
        {
          "internalType": "contract IERC20",
          "name": "token",
          "type": "address"
        }
      ],
      "name": "setToken",
      "outputs": [],
      "stateMutability": "nonpayable",
      "type": "function"
    },
    {
      "inputs": [
        {
          "internalType": "address",
          "name": "newOwner",
          "type": "address"
        }
      ],
      "name": "transferOwnership",
      "outputs": [],
      "stateMutability": "nonpayable",
      "type": "function"
    }
  ],
  "bytecode": "0x608060405234801561001057600080fd5b50610e43806100206000396000f3fe608060405234801561001057600080fd5b506004361061009e5760003560e01c80638129fc1c116100665780638129fc1c146101165780638da5cb5b1461011e5780639d66a9cd1461012f578063c23b139e1461014f578063f2fde38b1461016257600080fd5b80630f08efe0146100a3578063144fa6d7146100c157806321df0da7146100d657806358eb2df5146100fb578063715018a61461010e575b600080fd5b6100ab610175565b6040516100b89190610cb6565b60405180910390f35b6100d46100cf366004610ba6565b610354565b005b6099546001600160a01b03165b6040516001600160a01b0390911681526020016100b8565b6100d4610109366004610bf4565b6103a9565b6100d46105e4565b6100d461061a565b6033546001600160a01b03166100e3565b61014261013d366004610c48565b6106e3565b6040516100b89190610d84565b6100d461015d366004610bc9565b610761565b6100d4610170366004610ba6565b6109c8565b6060600061018260975490565b9050600061018f60985490565b60975461019c9190610db0565b9050806101dc5760408051600080825260208201909252906101d4565b6101c1610b6a565b8152602001906001900390816101b95790505b509250505090565b60008167ffffffffffffffff81111561020557634e487b7160e01b600052604160045260246000fd5b60405190808252806020026020018201604052801561023e57816020015b61022b610b6a565b8152602001906001900390816102235790505b5090506000805b8481101561034a57609a600061025c836001610d98565b815260208101919091526040016000206006015460ff16610338576000610284826001610d98565b6000818152609a6020908152604091829020825160e0810184528154815260018201546001600160a01b039081169382019390935260028201549381019390935260038101548216606084015260048101549091166080830152600581015460a0830152600681015460ff16151560c083015286519293509186908690811061031d57634e487b7160e01b600052603260045260246000fd5b6020908102919091010152610333600185610d98565b935050505b8061034281610dc7565b915050610245565b5090949350505050565b6033546001600160a01b031633146103875760405162461bcd60e51b815260040161037e90610d04565b60405180910390fd5b609980546001600160a01b0319166001600160a01b0392909216919091179055565b600260655414156103fc5760405162461bcd60e51b815260206004820152601f60248201527f5265656e7472616e637947756172643a207265656e7472616e742063616c6c00604482015260640161037e565b60026065558061044e5760405162461bcd60e51b815260206004820152601c60248201527f5072696365206d757374206265206174206c6561737420312077656900000000604482015260640161037e565b61045c609780546001019055565b600061046760975490565b6040805160e0810182528281526001600160a01b0387811660208084018281528486018a8152336060870181815260006080890181815260a08a018e815260c08b018381528d8452609a909852918b902099518a55945160018a018054918a166001600160a01b0319928316179055935160028a015590516003890180549189169185169190911790559251600480890180549290981691909316179095559051600586015590516006909401805494151560ff199095169490941790935592516323b872dd60e01b81529182015230602482015260448101869052919250906323b872dd90606401600060405180830381600087803b15801561056a57600080fd5b505af115801561057e573d6000803e3d6000fd5b505060408051338152600060208201819052818301879052606082015290518693506001600160a01b038816925084917f045dfa01dcba2b36aba1d3dc4a874f4b0c5d2fbeb8d2c4b34a7d88c8d8f929d1919081900360800190a4505060016065555050565b6033546001600160a01b0316331461060e5760405162461bcd60e51b815260040161037e90610d04565b6106186000610a5c565b565b600054610100900460ff166106355760005460ff1615610639565b303b155b61069c5760405162461bcd60e51b815260206004820152602e60248201527f496e697469616c697a61626c653a20636f6e747261637420697320616c72656160448201526d191e481a5b9a5d1a585b1a5e995960921b606482015260840161037e565b600054610100900460ff161580156106be576000805461ffff19166101011790555b6106c6610aae565b6106ce610ae5565b80156106e0576000805461ff00191690555b50565b6106eb610b6a565b506000908152609a6020908152604091829020825160e0810184528154815260018201546001600160a01b039081169382019390935260028201549381019390935260038101548216606084015260048101549091166080830152600581015460a08301526006015460ff16151560c082015290565b600260655414156107b45760405162461bcd60e51b815260206004820152601f60248201527f5265656e7472616e637947756172643a207265656e7472616e742063616c6c00604482015260640161037e565b600260658190556000828152609a602052604090206005810154918101546006820154600390920154909160ff16906001600160a01b03163381141561083c5760405162461bcd60e51b815260206004820152601d60248201527f596f752063616e206e6f742062757920796f7572206f776e206974656d000000604482015260640161037e565b811561088a5760405162461bcd60e51b815260206004820152601960248201527f54686973206974656d20697320616c726561647920736f6c6400000000000000604482015260640161037e565b604051632142170760e11b8152306004820152336024820152604481018490526001600160a01b038716906342842e0e90606401600060405180830381600087803b1580156108d857600080fd5b505af11580156108ec573d6000803e3d6000fd5b50506099546040516323b872dd60e01b81523360048201526001600160a01b0385811660248301526044820189905290911692506323b872dd9150606401602060405180830381600087803b15801561094457600080fd5b505af1158015610958573d6000803e3d6000fd5b505050506040513d601f19601f8201168201806040525081019061097c9190610c28565b506000858152609a602052604090206004810180546001600160a01b03191633179055600601805460ff191660011790556109bb609880546001019055565b5050600160655550505050565b6033546001600160a01b031633146109f25760405162461bcd60e51b815260040161037e90610d04565b6001600160a01b038116610a575760405162461bcd60e51b815260206004820152602660248201527f4f776e61626c653a206e6577206f776e657220697320746865207a65726f206160448201526564647265737360d01b606482015260840161037e565b6106e0815b603380546001600160a01b038381166001600160a01b0319831681179093556040519116919082907f8be0079c531659141344cd1fd0a4f28419497f9722a3daafe3b4186f6b6457e090600090a35050565b600054610100900460ff16610ad55760405162461bcd60e51b815260040161037e90610d39565b610add610b13565b610618610b3a565b600054610100900460ff16610b0c5760405162461bcd60e51b815260040161037e90610d39565b6001606555565b600054610100900460ff166106185760405162461bcd60e51b815260040161037e90610d39565b600054610100900460ff16610b615760405162461bcd60e51b815260040161037e90610d39565b61061833610a5c565b6040805160e081018252600080825260208201819052918101829052606081018290526080810182905260a0810182905260c081019190915290565b600060208284031215610bb7578081fd5b8135610bc281610df8565b9392505050565b60008060408385031215610bdb578081fd5b8235610be681610df8565b946020939093013593505050565b600080600060608486031215610c08578081fd5b8335610c1381610df8565b95602085013595506040909401359392505050565b600060208284031215610c39578081fd5b81518015158114610bc2578182fd5b600060208284031215610c59578081fd5b5035919050565b80518252602081015160018060a01b03808216602085015260408301516040850152806060840151166060850152806080840151166080850152505060a081015160a083015260c0810151151560c08301525050565b6020808252825182820181905260009190848201906040850190845b81811015610cf857610ce5838551610c60565b9284019260e09290920191600101610cd2565b50909695505050505050565b6020808252818101527f4f776e61626c653a2063616c6c6572206973206e6f7420746865206f776e6572604082015260600190565b6020808252602b908201527f496e697469616c697a61626c653a20636f6e7472616374206973206e6f74206960408201526a6e697469616c697a696e6760a81b606082015260800190565b60e08101610d928284610c60565b92915050565b60008219821115610dab57610dab610de2565b500190565b600082821015610dc257610dc2610de2565b500390565b6000600019821415610ddb57610ddb610de2565b5060010190565b634e487b7160e01b600052601160045260246000fd5b6001600160a01b03811681146106e057600080fdfea2646970667358221220949503b79099a2a8b7d8699fef4a11624e56f2ed370d1bcc13758ea17f1c68da64736f6c63430008040033",
  "linkReferences": {},
  "deployedLinkReferences": {}
}